:020000040800F2
:10000000C806002035020008B5120008E1110008FA
:10001000B1120008310400086D140008000000004F
:10002000000000000000000000000000BD120008F9
:100030003504000800000000B9120008C1120008D1
:100040004F0200084F0200084F0200084F0200084C
:100050004F0200084F0200084F0200084F0200083C
:100060004F0200084F0200084F0200084F0200082C
:100070004F0200084F0200084F0200084F0200081C
:100080004F0200084F0200084F0200080000000065
:100090000000000000000000000000004F02000807
:1000A0004F0200084F0200084F0200084F020008EC
:1000B0004F0200084F0200084F0200084F020008DC
:1000C0004F0200084F0200084F0200084F020008CC
:1000D0004F0200084F0200084F0200080000000015
:1000E0004F0200084F0200084F0200080000000005
:1000F0000000000000000000000000004F020008A7
:10010000000000004F0200084F0200084F020008E4
:1001100000000000000000000000000000000000DF
:100120004F0200084F0200084F0200084F0200086B
:100130004F02000800000000000000000000000066
:100140000000000000000000000000004F02000856
:100150004F0200084F0200084F0200084F0200083B
:100160004F0200084F0200080000000000000000DD
:10017000000000000000000000000000000000007F
:10018000000000004F020008000000000000000016
:100190004F02000800F002F800F03CF80AA090E8D6
:1001A000000C82448344AAF10107DA4501D100F032
:1001B00031F8AFF2090EBAE80F0013F0010F18BFC3
:1001C000FB1A43F00103184708130000281300002E
:1001D000103A24BF78C878C1FAD8520724BF30C873
:1001E00030C144BF04680C60704700000023002445
:1001F00000250026103A28BF78C1FBD8520728BF37
:1002000030C148BF0B6070471FB501F048F91FBDF2
:1002100010B510BD00F0A9F81146FFF7F5FF01F089
:1002200027F900F0C7F803B4FFF7F2FF03BC00F0B2
:10023000CFF800000948804709480047FEE7FEE77D
:10024000FEE7FEE7FEE7FEE7FEE7FEE7FEE7FEE786
:1002500004480549054A064B704700006913000829
:1002600095010008C8000020C8060020C802002030
:10027000C802002053EA020C00F069802DE9F04B1F
:100280004FF00006002B1FBFB3FA83F503FA05F405
:1002900024FA05F65E4012BF1643B2FA82F502FA5E
:1002A00005F4C5F120051EBF22FA05FC44EA0C0442
:1002B000203556EA044C4FEA144418BF641C4FF032
:1002C00000084FF00009904271EB030C39D300296C
:1002D00019BFB1FA81F701FA07F6B0FA80F700FA10
:1002E00007F6C7F120071EBF20FA07FC46EA0C06F6
:1002F0002037B6FBF4FCA7EB0507103F07F01F0BF8
:10030000CBF120062CFA06F60CFA0BFB44BFB346E1
:100310000026202FA4BF5E464FF0000B5BEA060CC0
:1003200008BF4FF0010B19EB0B0948EB0608ABFBBC
:10033000027C06FB02CC0BFB03CCC01B71EB0C0157
:10034000C1E70B46024641464846BDE8F08B13B56F
:10035000084318BF4FF0FF300146AFF30080BDE8FF
:100360001C407047704770477047754600F02CF886
:10037000AE4605006946534620F00700854618B092
:1003800020B5FFF765FFBDE820404FF000064FF0B5
:1003900000074FF000084FF0000BAC46ACE8C00976
:1003A000ACE8C009ACE8C009ACE8C00921F007011D
:1003B0008D46704710B50446AFF300802046BDE877
:1003C0001040FFF730BF00000048704710000020C9
:1003D00001491820ABBEFEE726000200704700006E
:1003E00070B544F20000C0F600000568466840F6AB
:1003F0000000C4F202004FF4005100F079F840F21E
:100400007000C2F2000000F01BF840F27804C2F263
:100410000004204600F04CFE204600F049FE00F0AB
:1004200085FB85F308883046BDE870400047000032
:10043000FEE700007047000072B600BFFEE7000054
:10044000B0B598B104464079022502280CD06571F8
:1004500020680025816841F0010181600571204616
:1004600000F01CF8657125712846B0BD0120B0BDB3
:10047000002804BF0120704710B50446407918B128
:1004800001206071002010BD00202071204600F086
:1004900015F801206071002010BD000043F6300106
:1004A000C4F202010068A1F50362904218BF7047D0
:1004B000086820F4805008607047000081B043F65F
:1004C0003001C4F202010068A1F50362904201D03C
:1004D00001B0704700200090086840F48050086028
:1004E000086800F480500090009801B07047000048
:1004F0002DE9F04F81B000F13E4241F2000743F692
:10050000004902F1FF72C4F202070726C4F2010992
:100510004FEAB223B84208BF0426042B38BF4FEA83
:10052000B22604220024A9F57E7A4FF00F0C002594
:10053000009628E0A31C0668032707FA03F39E43EE
:1005400006606FF0030606EA5507074402F01C0830
:10055000D7F820B00EFA08F62BEA06063E62C66807
:100560009E43C660466806EA0C07476087684FF0FE
:100570000F0C27EA0303836004340235202C02F1B8
:10058000080200F09980012303FA05F70F4255D0C5
:1005900025F00303A2F104085AF8036008F0080BE1
:1005A0004FF00F0E009B0EFA0BFC06EA0C0603FA46
:1005B0000BF39E426FEA070B20D1D9F8003043F6C7
:1005C0000C4603EA0B03C9F80030D9F80430C4F232
:1005D000010603EA0B03C9F80430336803EA0B038E
:1005E0003360D9F80830AE0803EA0B03C9F80830C5
:1005F0005AF8263023EA0C034AF82630036803270A
:1006000007FA04F6B34303606FF0030303EA5507E8
:10061000074408F0180CD7F820800EFA0CF328EAEB
:1006200003033B62C3684FF00F0CB343C3604368DE
:1006300003EA0B0343608368B3438360022303FA36
:1006400005F707EA0103BB4296D125F003035AF8E8
:10065000036002F00C030CFA03F806EA080C009E93
:100660004FF00F0E06FA03F39C456FEA070C7FF478
:1006700061AFD9F8003043F60C4603EA0C03C9F821
:100680000030D9F80430C4F2010603EA0C03C9F8BB
:100690000430336803EA0C033360D9F80830AE083D
:1006A00003EA0C03C9F808305AF8263023EA080395
:1006B0004AF826303EE700BF01B0BDE8F08F0000E9
:1006C0002DE9F04F82B000F13E4241F2000502F107
:1006D000FF77C4F20205072243F6004E4FEAB72621
:1006E000A84208BF0422C4F2010E042E38BF4FEA0C
:1006F000B7220125002600274FF00008009208E0ED
:1007000008F101080437B8F1100F06F1020600F0F5
:10071000A7800C6805FA08F914EA090FF0D0D1F89F
:1007200004B003220BF0030CACF10104B240012C25
:100730006FEA020A10D88268CC6802EA0A02B44062
:10074000224382604268CBF3001422EA090204FAD1
:1007500008F42243426005E0BCF1030F02D14FF0E0
:10076000030C20E0C2688C6802EA0A02B44022430B
:10077000BCF1020FC26016D16FF0030202EA580208
:100780000244D2F820C007F01C050F230C69AB40CF
:100790002CEA030304FA05F52B431362D1F804B0E5
:1007A00001250BF0030C02680CFA06F302EA0A02B8
:1007B0001A431BF4403F0260A2D0002243F64403D8
:1007C0000192C4F202031A684FF6084C42F48042C8
:1007D0001A601A68CFF6FF7C02F480420192019AF7
:1007E00028F00302724452F80C3007F00C050F2475
:1007F000AC40A343009C04FA05F52B4342F80C30AF
:10080000DEF808204B6842EA090543F60C4CDC028E
:1008100058BF22EA0905CEF80850C4F2010CDCF8F2
:1008200000209C0242EA090558BF22EA0905CCF8DB
:100830000050DEF804209C0342EA090558BF22EA72
:100840000905CEF80450DEF80020DB0342EA090572
:1008500058BF22EA0905CEF80050012550E700BF35
:1008600002B0BDE8F08F0000002A08BF09048161D2
:100870007047000040F2C000C2F2000000687047FC
:1008800040F2000040F2C001C2F20000C2F20001DA
:1008900000780A68104408607047000080B543F68D
:1008A0000040C4F20200016841F400710160016877
:1008B00041F480610160016841F4807101600320AE
:1008C00000F074F80F2000F005F800F027F8002081
:1008D00080BD000070B540F20006C2F2000640F292
:1008E00008013278C2F200014FF47A730968B3FB51
:1008F000F2F20446B1FBF2F1084600F0C3FB0F2C04
:100900004FF0010508D838B94FF0FF3021460022DA
:10091000002500F01FF87460284670BD82B00020EA
:1009200043F640010190C4F202014A6842F4804259
:100930004A604A6802F480420192019A0090086875
:1009400040F080500860086800F0805000900098E7
:1009500002B0704710B54EF60C5CCEF2000CDCF81D
:100960000030C3F3022E8EF00704042C28BF0424A9
:10097000BEF103034FF0FF3E0EFA04F438BF00232C
:10098000A14399400EFA03F39A43114300F00F027A
:1009900000F160430901043A03F56443624400280E
:1009A00048BF02F10C03197010BD00004EF60C5147
:1009B000CEF200010A684FF6FF031A4060F30A22E4
:1009C00042F0806040F0FD70086070472DE9F04112
:1009D000002800F08B8043F60808C4F202080446A1
:1009E000D8F8F8030D4600F00700884207D288F8CF
:1009F000F853D8F8F80300F00700A84276D1206831
:100A0000810717D5410705D5D8F8001041F4E0510A
:100A1000C8F80010010705D5D8F8001041F460416E
:100A2000C8F80010D8F80010A26821F0F0011143B6
:100A3000C8F80010C0073FD1D8F8F80300F007004D
:100A4000A84207D988F8F853D8F8F80300F007004F
:100A5000A8424BD12068410707D5D8F80010E268BA
:100A600021F4E0511143C8F80010000708D5D8F868
:100A70000000216920F4604040EAC100C8F800008D
:100A800000F010F9D8F8001041F2B842C1F3031198
:100A9000C0F60002515C40F2080220FA01F140F277
:100AA0000400C2F200000068C2F200021160FFF709
:100AB00011FF0020BDE8F0816068811E022907D285
:100AC00058F8081C89015CBF0120BDE8F08111E0E5
:100AD000012807D158F8081C89035CBF0120BDE834
:100AE000F08107E058F8081C890703D40120BDE80D
:100AF000F08100BFD8F8001021F003010843C8F8C6
:100B00000000FFF7B7FE064641F28837D8F800002C
:100B1000616800F00C00B0EB810F8DD0FFF7AAFEEA
:100B2000801BB842F2D90320BDE8F081F0B581B056
:100B300043F60006C4F20206FFF79CFE3168044645
:100B400041F00100306000BF3068800706D4FFF735
:100B500091FE001B0228F7D940E000BF306840F04A
:100B600080003060FFF786FE0546002041F288379E
:100B7000B06000BFB468FFF77DFE14F00C0F0446B0
:100B800004D0601BB842F5D928E000BF306820F4DB
:100B9000502030603568FFF76DFEA903054603D588
:100BA000281B6428F6D919E0306820F08070306086
:100BB0003468FFF75FFEA101044603D5601B0228DD
:100BC000F6D90BE0306820F08060306030680001BA
:100BD00008D5FFF74FFE001B0228F7D9032001B00C
:100BE000F0BD00BF43F21000C0F20040706043F25D
:100BF0000000C2F20000C6F88400F06840F208016C
:100C000020F4F850F060F06842F2004220F4005006
:100C1000F060F068C2F2000140F41F00F060F0687C
:100C2000C0F2F40240F40010F060706F20F0010098
:100C30007067706F40F08070706740F20400C2F21D
:100C4000000000680A60FFF745FE002818BF012079
:100C500001B0F0BD40F2080043F60801C2F2000006
:100C6000C4F202010068096841F2C842C1F382215E
:100C7000C0F60002515CC8407047000040F2080016
:100C800043F60801C2F20000C4F2020100680968DC
:100C900041F2C842C1F34231C0F60002515CC84083
:100CA0007047000010B543F60404C4F20204606803
:100CB00000F00C0008280BD0042819BF42F20040B5
:100CC000C0F2F40047F64000C0F27D1010BD00BF36
:100CD000206821682368490247F64001C0F27D116F
:100CE00000F03F02C3F388105CBF42F20041C0F243
:100CF000F401A1FB00010023FFF7BCFA21680222E6
:100D0000C1F3014102EB4101B0FBF1F010BD000065
:100D10002DE9F04182B0002868D00446007843F6FF
:100D20000006C007C4F202060BD0B06800F00C0049
:100D3000042840F09F803068800302D56068002856
:100D400054D0207880071AD5B06810F00C0F09D065
:100D5000B06800F00C00082840F0A68070684002DF
:100D600000F1A2803068800702D5E06801283DD1FB
:100D70003068216920F0F80040EAC1003060207836
:100D8000000737D4207840074CD4A56955B3B06824
:100D900000F00C00082840F0BB80012D26D07068C0
:100DA000E16900F480028A4220D1216A00F03F020A
:100DB0008A421BD147F6C071626A0140B1EB821FC3
:100DC00014D1A16A4FF6FF73C903994300F440326E
:100DD000A1F580318A4209D1E16A00F07060B0EB80
:100DE000016F03D1002002B0BDE8F081012002B004
:100DF000BDE8F0816069002840F20000C4F247209D
:100E000076D00121C0F8801EFFF734FD054600BFF3
:100E1000706F8007B6D4FFF72DFD401B0228F7D96D
:100E2000DDE000BF306C10F080580AD10020019046
:100E3000306C40F080503064306C00F08050019095
:100E4000019847F20007C4F200073868C00541D492
:100E5000386840F480703860FFF70CFD054600BF2D
:100E60003868C00536D4FFF705FD401B0228F7D9C6
:100E7000B5E000BFB06800F00C00082803D170682E
:100E800040023FF558AF6068B0F5803F07D0B0F53D
:100E9000A02F40F08D80306840F4802030603068B2
:100EA00040F4803030608DE0E068002852D00020AF
:100EB000C4F2472001210160FFF7DCFC054600BFBA
:100EC000306880073FF554AFFFF7D4FC401B022881
:100ED000F6D984E0A068012805D005284ED1306FEE
:100EE00040F004003067306F40F0010030674FE0A1
:100EF0000021C0F8801EFFF7BDFC0546706F80071B
:100F00007FF540AFFFF7B6FC401B0228F6D966E03C
:100F10000027C4F2472700203866FFF7ABFC022DFC
:100F200005460BD1306880015ED5FFF7A3FC401B5E
:100F300002284FF00300F5D955E700BF3068800163
:100F40007FF550AFFFF796FC401B02284FF00300DF
:100F5000F4D948E70020C4F2472000210160FFF7E0
:100F600089FC0546306880077FF509AFFFF782FCF2
:100F7000401B02284FF00300F4D934E7316F0028FA
:100F800021F001013167316F21F0040131674DD04B
:100F9000FFF770FC054641F2883700BF306F8007CD
:100FA00056D4FFF767FC401BB842F7D917E000BFE3
:100FB0003168002821F480313160316821F48021CA
:100FC00031604FD0FFF756FC054600BF3068800304
:100FD0003FF5B7AEFFF74EFC401B6428F6D903205F
:100FE00002B0BDE8F08100BF04F11C052FCD08431D
:100FF00040EA8210D9034FF6FF729143A1F5803188
:1010000040EA05600843706001203866FFF732FC53
:10101000044600BF306880013FF5E4AEFFF72AFCCC
:10102000001B02284FF00300F4D9DCE6FFF722FC96
:10103000054641F2883700BF306F800708D5FFF7BB
:1010400019FC401BB8424FF00300F5D9CBE600BFB6
:10105000B8F1000F7FF499AE306C20F0805030640E
:1010600093E600BFFFF706FC054600BF306880032B
:101070007FF567AEFFF7FEFB401B64284FF00300CF
:10108000F4D9B0E6411E0020B0EB116F1CBF012067
:1010900070474EF21002CEF2000251604EF623511C
:1010A000CEF20001F0230B700721906011607047B1
:1010B000002804BF0120704710B50446242084F89E
:1010C00041002068C16821F40051C160204600F051
:1010D0003BF80020606484F8410084F842002063FB
:1010E000606384F8400010BD002804BF01207047F1
:1010F00010B5044690F8410028B9002084F840005B
:10110000204600F037F8242084F841002068C168A8
:1011100021F40051C160204600F030F920680169D7
:1011200021F490410161416921F02A014161C168C6
:1011300041F40051C16000202021606484F8411016
:1011400084F84210606310BD016841F20000C4F2EF
:101150000100814218BF704743F64402C4F2020204
:10116000116800F5704021F010034FF4C061136066
:10117000FFF7BEB980B586B0016841F20000C4F245
:101180000100814202D006B080BD00BF002143F6BD
:1011900030020191C4F20202536900F5704043F03D
:1011A00010035361536903F010030193019B0191F4
:1011B000136843F001031360126802F00102019208
:1011C000019A4FF4C06201920222CDE9022103216B
:1011D00004910721059101A9FFF772FA06B080BDBD
:1011E000FEE7000080B540F2700043F20001C2F259
:1011F0000000C4F202010160FFF73AF9002808BFBD
:1012000080BDBDE88040FFF717B9000070B586B01B
:10121000002543F6300005950095C4F202000168F0
:1012200040F6000441F0040101600168C4F20204C8
:1012300001F004010091009900950168002241F03D
:101240000101016000684FF4005100F001000090BE
:10125000009820464FF40056FFF706FB0120CDE929
:10126000020501A9204601960495FFF729FA06B068
:1012700070BD000080B540F2780041F20001C2F27A
:101280000000C4F2010100234FF00C0C4FF4E132D6
:1012900080E80E00C0E90333C0E905C3C361FFF76E
:1012A00023FF002808BF80BDBDE88040FFF7C4B819
:1012B000FEE70000FEE700007047000070470000F6
:1012C000FFF7DEBAB0B592B0002443F640000B94AD
:1012D000CDE90944CDE907440594CDE90344CDE9BE
:1012E00001440094C4F202000168022541F08051DB
:1012F0000160006800F080500090009847F2000004
:101300000094C4F20000016865F38F310160006849
:1013100000F44040009000980120099010200A90AD
:1013200008200E905420CDE90F050420119006A846
:101330000695CDE90C54FFF7EBFC18B172B600BF6F
:10134000FEE700BF0F20CDE901054FF48050CDE945
:10135000040401A802210394FFF738FB10B172B610
:10136000FEE700BF12B0B0BD4EF68850CEF20000CE
:10137000016841F4700101607047000010B5044637
:101380000068D4E902C22369016921F44051114384
:101390000161626943EA0C01E3691143C2681943C0
:1013A00049F20C639A431143C1604169A26921F477
:1013B000407141F20043114340F48062C4F20103E2
:1013C0009A42416102D1FFF759FC01E0FFF742FC6C
:1013D000E16963681922B1F5004FA0FB020123D136
:1013E0005A00DB0FFEF746FF48F21F51C5F2EB1122
:1013F000A0FB01235A094FF69C73C0F6FF7303F15B
:10140000805302FB0300322303EBC000A0FB010169
:101410004FF4F87000EA111000EB0210C1F3421112
:1014200008442168886010BD9A009B0FFEF722FFD8
:1014300048F21F51C5F2EB11A0FB01235A094FF6E8
:101440009C73C0F6FF7302FB0300322303EB001012
:10145000A0FB0101F02000EA511000EB0210C1F3E3
:10146000431108442168886010BD0000FEE70000B9
:10147000FFF714FAFFF726FFFFF7C8FEFFF7FAFEA3
:10148000FFF7B0FE40F60000C4F202004FF4005136
:101490000122FFF7E9F9FEF7A3FF00BFFEE7F1EE37
:1014A000100A4FF6FF71C0F2C03120EA010040F08F
:1014B0004070E1EE100A70470000000000000000DC
:1014C00001020304060708090000000001020304EA
:1014D000F01400080000002010000000D0010008F7
:1014E0000015000810000020B8060000EC010008FC
:1014F00001000000100000000024F40000000000C3
:040000050800019559
:00000001FF
